:020000040000FA
:0600000072EF10F0120087
:0600080004EF04F01200F9
:060018000CEF04F01200E1
:0608000072EF10F012007F
:06080800A6EF0BF0120048
:06081800E7EF0BF01200F7
:06082A0001001021000096
:08083000EF00000009000000C8
:08083800D9CFE6FFE1CFD9FFA3
:10084000E6526A6A686A9F0E6B6EFB0E696E6D8C6B
:100850006D9C6E6A010EE66EE66AE66A710EE66EE1
:100860000F0EE66E58EC10F0006E050EE15E0050C3
:10087000DF6ADF50006E016A0C0E005C000E01584A
:1008800010E2DF50040DF3CFE9FFF4CFEAFF000ED2
:10089000E926040EEA22EE6AEE6AEE6AEE6ADF2AC2
:1008A000E8D7160E706E68A60CD0030EE66E680EC2
:1008B000E66E0F0EE66E8BEC0BF0E552E552E5525C
:1008C000F2D70101176B1C6B1D6B1E6B6D98080E28
:1008D0000D6F040E0E6F016B006BE552E552E7CF12
:1008E000D9FF1200D9CFE6FFE1CFD9FFE6520101CF
:1008F00000510BE16D6A696A6DB602D06D86FCD756
:100900000101010E006F160E6F6E000508E16DBA51
:1009100006D0686A696A69806988020E006F68504B
:10092000040B04E06950040B01E09ED86DB265D061
:100930006850010B11E06950010B0EE07DDF0101F1
:10094000040E006F0401300E026F040E036F400EA0
:10095000016F006B8C0E00136850100B0FE0695094
:10096000100B0CE072D8040EE66E680EE66E0F0EE9
:10097000E66E8BEC0BF0E552E552E5526850400B09
:1009800010E06950400B0DE0DBEC0DF0060EE66E5A
:10099000680EE66E0F0EE66E8BEC0BF0E552E5523C
:1009A000E5526850200B04E06950200B01E02AD882
:1009B0006850020B06E06950020B03E0DCEC0DF01E
:1009C0006A6A040E0101005D18E369A616D0DF6AA9
:1009D000040EDF5C12E268A610D06CCF24F1030E87
:1009E000E66E680EE66E0F0EE66E8BEC0BF0E552CF
:1009F000E552E5524CD8DF2AEBD7E552E552E7CF76
:100A0000D9FF120070A015D003C1E9FF04C1EAFFAD
:100A1000EF5080080DE10DC1E9FF0EC1EAFFEF5074
:100A2000840806E103C1E9FF04C1EAFF8C0EEF6E02
:100A30007090050EE66E680EE66E0F0EE66E8BEC9D
:100A40000BF0E552E552E55212006984040EE66EA1
:100A5000680EE66E0F0EE66E8BEC0BF0E552E5527B
:100A6000E5526D82D9EF0DF06D92DAEC0DF06994DC
:100A700068A40CD0020EE66E680EE66E0F0EE66EEF
:100A80008BEC0BF0E552E552E552F2D71200FD0E69
:100A90000101241520E17E0E2415E8407F0B040D92
:100AA000F3CF03F1F4CF04F1000E0327040E042367
:100AB00003C105F104C106F1057503C1E9FF04C1D5
:100AC000EAFFEF503C0BE842E8420D0802E171EF0B
:100AD00005F088EF05F0FD0E2415040801E120D88B
:100AE00012000DC1E9FF0EC1EAFFEF50800B05E0D7
:100AF0000DC1E9FF0EC1EAFFEF6A0101136B146B30
:100B0000186B196B176BF3D8DDEC0DF0FAEF07F0EB
:100B1000020E0101145D02E152EF09F0DAEF05F077
:100B2000D9CFE6FFE1CFD9FFE6520DC1E9FF0EC1F3
:100B3000EAFFEF50400B01E0010EDF6E01010D7581
:100B4000080E005D09E132C46EFF6E50000802E23B
:100B5000100E01D0040E006F140526E10DC1E9FF4F
:100B60000EC1EAFF020EE926000EEA22380EEE6EF2
:100B7000040EED6E0EDB020E0101135D06E10DC1E8
:100B8000E9FF0EC1EAFF840E0DD0DF5006E10DC172
:100B9000E9FF0EC1EAFFC80E05D00DC1E9FF0EC185
:100BA000EAFF880EEF6E01D005D8E552E552E7CF97
:100BB000D9FF1200D9CFE6FFE1CFD9FF030EE1261E
:100BC000020E0101145D49E16D50100B46E003C1B6
:100BD000E9FF04C1EAFFEE52EF50006E016A080E11
:100BE00000183BE1015039E103C1E9FF04C1EAFF0C
:100BF000EF503C0BE842E8420D082FE105C1E9FF48
:100C000006C1EAFFEF50800B28E105C1E9FF06C1EC
:100C1000EAFF020EE926000EEA22300EEE6E040E06
:100C2000ED6EDF6ADF50006E016A080E005C000E98
:100C3000015844E2DF50EA6A380FE96E040EEA22F6
:100C4000EF50E66EDF50EA6A300FE96E040EEA22DA
:100C5000E552E750EF6EDF2AE5D7146B05C1E9FFD7
:100C600006C1EAFFEE52400EEF6E05C1E9FF06C174
:100C7000EAFF020EE926000EEA22300EEE6E040EA6
:100C8000ED6E05C1E9FF06C1EAFF8C0EEF6E0DC1E6
:100C9000E9FF0EC1EAFFEF6A040E0D19006E0EC1E6
:100CA00001F0010E00C0DBFF020E0EC1DBFF010EE2
:100CB000DBCFE9FF020EDBCFEAFFEF6A01011CAFD9
:100CC0000CD01F51201107E005D020C1FAFF01010F
:100CD0001F51F96EFADF01011C9F030EE15C02E275
:100CE000E16AE552E16EE552E7CFD9FF1200040157
:100CF0003051600BE842E842E842E842E84200092D
:100D000001E0120031510C0A43E00B0A3FE00C0AEB
:100D100031E0010A22E00B0A1EE0020A1CE0030A8D
:100D200018E0080A10E0010A0CE00F0A08E0030AC4
:100D300001E012000101178F080E006F12004FEF43
:100D400007F0E2EF09F00101010E156F010E166FB9
:100D50000CD0A0EF07F0C9EF06F034510101156F78
:100D6000166B020E1527010E16231781010E186F40
:100D7000178F12000101178F04013451EA6A020F24
:100D8000E96E010EEA2232C4EFFF1200DFEF0DF030
:100D90001200D9CFE6FFE1CFD9FF040EE12604010E
:100DA000320510E130511F0B00090CE10101178FD2
:100DB000030E0401315D04E10101010E236F02D035
:100DC0000101236B0401325160E130511F0B020815
:100DD0005CE134510F0B000958E00101178F040149
:100DE00034BF0BD034510F0BE96EEA6AD890E93664
:100DF000EA36070EE926010E0AD034510F0BE96ED0
:100E0000EA6AD890E936EA360D0EE926010EEA22A2
:100E1000EECFDEFFEDCFDDFF030E315D06E1DECF6D
:100E2000E9FFDDCFEAFF840E2FD034510F0B016AAA
:100E3000700F006E0F0E0122020E00C0DBFF030ECA
:100E400001C0DBFF020EDBCFE9FF030EDBCFEAFFC1
:100E5000EE90ED5234AF0CD0DECFE9FFDDCFEAFFEC
:100E6000EF6ADF74DECFE9FFDDCFEAFF400E0CD082
:100E7000DECFE9FFDDCFEAFF880EEF6EDF74DECF55
:100E8000E9FFDDCFEAFFC80EEF6E040EE15C02E27F
:100E9000E16AE552E16EE552E7CFD9FF1200800E1C
:100EA0000401305D4CE10101C00E176F04013351A4
:100EB000030A29E0010A09E0030A3FE10101F70EF4
:100EC000156F1E0E166F120E35D03251F66EF76A80
:100ED000D890F636F7360A0EF626200EF7220900CD
:100EE000F5CF15F10A00F5CF16F1020E0101F76AF0
:100EF0001525F66E1651F7220900F5CF18F10A00F4
:100F0000F5CF19F112003251F66EF76AD890F63625
:100F1000F7360C0EF626200EF7220900F5CF15F154
:100F20000A00F5CF16F115C1F6FF16C1F7FF08004C
:100F3000F5500101186F196B12000101176B1200B7
:100F4000D9CFE6FFE1CFD9FF020EE1260401386BCD
:100F5000396B30511F0B020A11E0030A0CE0010A41
:100F600035E10101178F04013881010123052EE1CC
:100F7000040138832BD00101178F28D00101178F6E
:100F8000040134BF0BD034510F0BE96EEA6AD890DC
:100F9000E936EA36070EE926010E0AD034510F0B66
:100FA000E96EEA6AD890E936EA360D0EE926010EB6
:100FB000EA22EECFDEFFEDCFDDFFDECFE9FFDDCFB2
:100FC000EAFFEF50040B02E0010E386F010117AF8A
:100FD00007D0380E156F040E166F1781020E186FAA
:100FE000020EE15C02E2E16AE552E16EE552E7CF12
:100FF000D9FF12006D98010117BF47D01CAF26D052
:10100000020E146F0DC1E9FF0EC1EAFFEE52EF6A46
:101010000DC1E9FF0EC1EAFFC80EEF6E05C1E9FF81
:1010200006C1EAFFEE52400EEF6E05C1E9FF06C1B0
:10103000EAFF020EE926000EEA22380EEE6E040EDA
:10104000ED6E05C1E9FF06C1EAFF77D005C1E9FFF2
:1010500006C1EAFFEE52400EEF6E05C1E9FF06C180
:10106000EAFF020EE926000EEA22300EEE6E040EB2
:10107000ED6E05C1E9FF06C1EAFF8C0EEF6E0DC1F2
:10108000E9FF0EC1EAFF840E59D01CBF81D00401D4
:1010900030AF56D0010118510401365D01011951DC
:1010A0000401375904E236C418F137C419F171D874
:1010B0000101010E146F05C1E9FF06C1EAFFEE52FE
:1010C000400EEF6E05C1E9FF06C1EAFF020EE926F8
:1010D000000EEA22300EEE6E040EED6E05C1E9FF41
:1010E00006C1EAFF800EEF6E03C1E9FF04C1EAFF0B
:1010F000EE52400EEF6E03C1E9FF04C1EAFF020E9B
:10110000E926000EEA22300EEE6E040EED6E03C1EB
:10111000E9FF04C1EAFF800EEF6E0DC1E9FF0EC1C9
:10112000EAFF020EE926000EEA22380EEE6E040EE9
:10113000ED6E0DC1E9FF0EC1EAFFC80EEF6E1200A1
:101140000101020E146F0DC1E9FF0EC1EAFFEE525C
:10115000EF6A0DC1E9FF0EC1EAFFC80EEF6E05C1CF
:10116000E9FF06C1EAFFEE52400EEF6E05C1E9FF4E
:1011700006C1EAFF020EE926000EEA22380EEE6EE4
:10118000040EED6E05C1E9FF06C1EAFFC80EEF6E61
:101190001200D9CFE6FFE1CFD9FF020EE12601010F
:1011A000400E185D000E19590DE218C1DEFF19C17D
:1011B000DDFF135102E1010E03D0130506E1020E1B
:1011C000136F03D0400EDE6EDD6A0DC1E9FF0EC164
:1011D000EAFFEF920DC1E9FF0EC1EAFFEF900DC1EA
:1011E000E9FF0EC1EAFF010EDB50EF120DC1E9FF6E
:1011F0000EC1EAFFEE52DFCFEFFF000EDB50185FAB
:10120000010EDB50195B380E216F040E226F17B1EF
:1012100020D0D9CFE9FFDACFEAFFEE50ED1038E069
:1012200015C1F6FF16C1F7FF152B000E1623080097
:10123000F550E66E21C1E9FF22C1EAFF212B000E25
:101240002223E552E750EF6EDF06010EE2E2DB06F5
:10125000E0D7D9CFE9FFDACFEAFFEE50ED1018E082
:1012600015C1E9FF16C1EAFF152B000E1623EF503A
:10127000E66E21C1E9FF22C1EAFF212B000E2223E5
:10128000E552E750EF6EDF06010EE3E2DB06E1D741
:10129000020EE15C02E2E16AE552E16EE552E7CF5F
:1012A000D9FF1200D9CFE6FFE1CFD9FF020EE12628
:1012B00003C1E9FF04C1EAFFEE52EFCFDFFFDFCF4A
:1012C00000F0005001011D5D000E1E5903E21DC11A
:1012D000DFFF09D0DF50006E016AE8501D5D1D6F11
:1012E00001501E591E6F010EDB6ADF50F36E010EB6
:1012F000DBCFF4FFF350F45C16E2010EDB50EA6A38
:10130000380FE96E040EEA22EF50E66E1AC1E9FFCB
:101310001BC1EAFF1A2B000E1B23E552E750EF6EAC
:10132000010EDB2AE2D7000ED8801D55000E1E5597
:1013300027E205C1E9FF06C1EAFFEE52400EEF6E5B
:1013400005C1E9FF06C1EAFF020EE926000EEA2206
:10135000380EEE6E040EED6E03C1E9FF04C1EAFF24
:10136000EF50400B06E105C1E9FF06C1EAFFC80ED8
:1013700005D005C1E9FF06C1EAFF880EEF6E18D05F
:1013800005C1E9FF06C1EAFF020EE926000EEA22C6
:10139000300EEE6E040EED6E1F51201107E005D0E9
:1013A00020C1FAFF01011F51F96EFADF01011C9FF4
:1013B000020EE15C02E2E16AE552E16EE552E7CF3E
:1013C000D9FF12000101178F010EE66EE66AE66A88
:1013D000710EE66E0F0EE66E58EC10F0006E050E04
:1013E000E15E0050010EE66EE66AE66A020EE66E07
:1013F000010EE66E58EC10F0006E050EE15E005036
:1014000032C401F10401325104E10101100E006FF8
:1014100012000101200E006FE0EF0DF0D9CFE6FFC2
:10142000E1CFD9FF020EE126000EDE6E040EDD6E66
:10143000FD0EDB50E824026EFE0EDB50040DF3506F
:101440000224040DF350006E016A020E0F0B05E03A
:10145000D89001320032E806FBE1D8900036013620
:10146000D89000360136D9CFE9FFDACFEAFF005035
:10147000EE260150ED22DECFE9FFDDCFEAFFEF9E41
:10148000FD0EDB500AE1FE0EEA6ADB34FE0BEA36A3
:10149000E96E070EE926010E09D0FE0EEA6ADB347A
:1014A000FE0BEA36E96E0D0EE926010EEA22DECFCA
:1014B000EEFFDDCFEDFFDECFE9FFDDCFEAFFEF9CF2
:1014C000DECFE9FFDDCFEAFF040EE926000EEA22B7
:1014D000EF8C020EE15C02E2E16AE552E16EE55258
:1014E000E7CFD9FF1200D9CFE6FFE1CFD9FF020E37
:1014F000E126FE0EDB50016A700F006E0F0E012216
:1015000000C0DEFF01C0DDFFFD0EDB50E66EDECF6A
:10151000E9FFDDCFEAFFE552E750EE6EED6AFD0E22
:10152000DBA407D0E66AFE0EDBCFE6FF77DFE552ED
:10153000E552FD0EDBA208D0010EE66EFE0EDBCFFB
:10154000E6FF6CDFE552E552020EE15C02E2E16A81
:10155000E552E16EE552E7CFD9FF1200D9CFE6FFA1
:10156000E1CFD9FF020EE126FE0EDB5020E105C1DE
:10157000E9FF06C1EAFFEE52400EEF6E05C1E9FF3A
:1015800006C1EAFF020EE926000EEA22300EEE6ED8
:10159000040EED6E05C1E9FF06C1EAFF8C0EEF6E89
:1015A0000DC1E9FF0EC1EAFF840EEF6E3BD0FD0EC8
:1015B000DB50E824026EFE0EDB50040DF3500224D3
:1015C000040DF3CF00F0F4CF01F0000E0026040E5E
:1015D000012200C0DEFF01C0DDFF840EDECFE9FF87
:1015E000DDCFEAFFE850EF12FD0EDB50E824026E7B
:1015F000FE0EDB50040DF3500224010F040DF3CF57
:1016000000F0F4CF01F0000E0026040E012200C00D
:10161000DEFF01C0DDFF840EDECFE9FFDDCFEAFF94
:10162000E850EF12020EE15C02E2E16AE552E16E7F
:10163000E552E7CFD9FF1200D9CFE6FFE1CFD9FFBE
:10164000020EE126FD0EDB500AE0FE0EEA6ADB34F4
:10165000FE0BEA36E96E0D0EE926010E09D0FE0EEC
:10166000EA6ADB34FE0BEA36E96E070EE926010E64
:10167000EA22EECFDEFFEDCFDDFFDECFE9FFDDCFEB
:10168000EAFF020EE926000EEA22FB0EDBCFEEFF98
:10169000FC0EDBCFEDFFDECFE9FFDDCFEAFFEE5240
:1016A000FA0EDBCFEFFF400EDECFE9FFDDCFEAFF22
:1016B000E850EF16880EDECFE9FFDDCFEAFFE850F5
:1016C000EF12FD0EDB500AE0FE0EEA6ADB34FE0B81
:1016D000EA36E96E0D0EE926010E09D0FE0EEA6A21
:1016E000DB34FE0BEA36E96E070EE926010EEA222C
:1016F000EF74DECF00F0DDCF01F000C0F3FF01C0DA
:10170000F4FF020EE15C02E2E16AE552E16EE552AD
:10171000E7CFD9FF1200D9CFE6FFE1CFD9FF010E05
:10172000F36EFC0EDB5004E0D890F336E806FCE1E3
:10173000F31C006EFD0EDBCFE9FFFE0EDBCFEAFFF0
:0C1740000050EF16E552E7CFD9FF120071
:04174C00DACFE4FF0D
:10175000E2CFDAFFE9CFE4FFEACFE4FFE652D9CFE8
:10176000E6FFE1CFD9FFE6529EA625D0C950DF6E35
:101770000001E25105E1DFCFE0F0010EE26F1AD087
:101780000001F4C003F0F5C004F0F407000EF55BAF
:101790000350041004E1320EF46FF56B8B723F0EB0
:1017A0000001E015EA6A600FE96E000EEA22DFCF61
:1017B000EFFFE26B9E96E552E552E7CFD9FFE55287
:1017C000E5CFEAFFE5CFE9FFE5CFDAFF1100D8CF9B
:1017D000E4FFE0CFE4FFE46EDACFE4FFE652F1B8D5
:1017E00004D0F1880001E26B01D0F198F092E5524B
:1017F000E5CFDAFFE550E5CFE0FFE5CFD8FF1000F9
:1018000004D872EC04F06AD8FCD70F0EC1121CEC9D
:1018100004F01CEF0CF0400EC76E240EC66E9380D1
:1018200093829384928AD08E9F869D86F198F09EB3
:10183000F088F28CF28E1200D9CFE6FFE1CFD9FF0B
:10184000020EE126FC0E8B1694160001EF6BF06B76
:10185000F16BF26BE0DFDE6ADD6ADECF00F0DDCF38
:1018600001F0D890015004E6040E005C000E01580F
:101870000FE2DECFE9FFDDCFEAFF600EE926000EC2
:10188000EA22800EEF6EDF2A010EE7E3DB2AE5D7BE
:10189000DECF00F0DDCF01F0D890015004E6400E1D
:1018A000005C000E01580EE2DECFE9FFDDCFEAFF5B
:1018B000600EE926000EEA22EF6ADF2A010EE8E355
:1018C000DB2AE6D70001F36B020EE15C02E2E16A7B
:1018D000E552E16EE552E7CFD9FF120037D9200E6D
:1018E0000101005D05E36D50020B01E0120001D81B
:1018F0001200D9CFE6FFE1CFD9FF020EE1260001A9
:10190000F151F21102E1000E08D0F1C0E9FFF2C07E
:10191000EAFFEF50800B01E0010E000913E1400ED9
:10192000E66EA00EE66E000EE66EE66A020EE66E4B
:101930001CEC0BF0006E050EE15E0050F3CFF1F0F1
:10194000F4CFF2F00001EF51F01102E1000E08D0E7
:10195000EFC0E9FFF0C0EAFFEF50800B01E0010E9D
:10196000000901E0E9D0F35101E1E6D0DE6ADD6A69
:10197000DECF00F0DDCF01F0D890015004E6300E4C
:10198000005C000E01580EE2DECFE9FFDDCFEAFF7A
:10199000B80EE926040EEA22EF6ADF2A010EE8E318
:1019A000DB2AE6D70401010EB86FB96BDE6ADD6A87
:1019B000DECF00F0DDCF01F0D890015004E6040E38
:1019C000005C000E01581EE2DECFE9FFDDCFEAFF2A
:1019D0001C0EE926000EEA22600EE926000EEA221D
:1019E000EF500BE0010EDF5206E0DFCFF3FFE846D9
:1019F000FE0BF306FCE10401BA13DF2A010ED8E363
:101A0000DB2AD6D7DECF00F0DDCF01F0D890015031
:101A100004E6080E005C000E01581EE2DECFE9FF6E
:101A2000DDCFEAFF040EE926000EEA22600EE92669
:101A3000000EEA22EF500BE0010EDF5206E0DFCF8E
:101A4000F3FFE846FE0BF306FCE10401BA13DF2ABC
:101A5000010ED8E3DB2AD6D7DE6ADD6ADECF00F0DE
:101A6000DDCF01F0D890015004E6080E005C000EB6
:101A700001581EE2DECFE9FFDDCFEAFF0C0EE926BA
:101A8000000EEA22600EE926000EEA22EF500BE07B
:101A9000010EDF5206E0DFCFF3FFE846FE0BF30650
:101AA000FCE10401BB13DF2A010ED8E3DB2AD6D701
:101AB0000001805102E00401BC81DE6ADD6ADECFF4
:101AC00000F0DDCF01F0D890015004E61C0E005C60
:101AD000000E01581EE2DECFE9FFDDCFEAFF600E07
:101AE000E926000EEA22EF50E66EDECFE9FFDDCFF9
:101AF000EAFF060EE926000EEA22B80EE926040ED9
:101B0000EA22E552E750EF6EDF2A010ED8E3DB2A26
:101B1000D6D7300EE66EB80EE66E040EE66E010EF7
:101B2000E66EE66E1CEC0BF0006E050EE15E0050FA
:101B3000F3CFEFF0F4CFF0F0020EE15C02E2E16AE5
:101B4000E552E16EE552E7CFD9FF12000001F651F0
:101B5000F71104E1100EF66F270EF76FF607000E6F
:101B6000F75B6DA20AD0F651F71122E18B708BA0C2
:101B700002D08B8212008B9212000101005101E110
:101B80001200000501E11200020E005D01E11200E9
:101B9000040E005D01E11200100E005D01E1120073
:101BA000200E005D05E10001F651F71101E18B7097
:101BB00012001200120012001200FFEF0DF01200CE
:101BC0001A0EE66E010EE66E73EC0AF0E552E5526F
:101BD0001C0EE66E020EE66E73EC0AF0E552E5525C
:101BE00012006D840001080EE36F070EE46FE30737
:0E1BF000000EE45BE351E411FAE16D94120083
:021BFE000401E0
:101C000030511F0B010801E01200345101E01200B5
:101C1000060E315D21E13351230A1BE0010A0CE07D
:101C2000030A1AE10101010517E101011B0E156FFD
:101C30001F0E166F090E09D0010101050DE101010A
:101C4000760E156F1F0E166F940E186F196BC00E5F
:101C500002D00101800E176F04013051600BE84281
:101C6000E842E842E842E842010801E0120031514E
:101C70000B0A24E0080A17E0090A25E0080A09E02F
:101C80000B0A05E0080A01E0120064EF0EF0A5EF70
:101C90000EF00101F80E156F000E166F010E186F91
:101CA000196BC10E09D00101F90E156F000E166FE8
:101CB000010E186F196B810E176F12000101800E53
:101CC000176F32C4F9F01200F80E0401321902E164
:101CD000030E33192CE0F50E321902E1030E33190D
:101CE00021E0F20E321902E1030E331916E0EF0E75
:101CF000321902E1030E33190BE0010E321921E112
:101D0000030E33191EE10101B70E156F1D0E13D01E
:101D10000101F70E156F1D0E0ED00101370E156F64
:101D20001E0E09D00101770E156F1E0E04D00101A1
:101D3000B70E156F1E0E166F400E186F196BC00E82
:101D400002D00101800E176F1200010E040132193A
:101D500002E1020E331923E0010E321902E1030EF3
:101D600033191DE0EF0E321902E1030E331917E0AB
:101D7000F20E321902E1030E331911E0F40E32199A
:101D800002E1030E33190BE0F50E321902E1030EE6
:101D9000331905E0F80E321902E1030E331901017F
:061DA000800E176F120017
:0A1DA600F2FFFF00002306B4E60E72
:101DB00000035081D8018A00010300050C010218BC
:101DC000181818090A10111213000000000400026C
:101DD00002020200000004040404000002010200E8
:101DE0006400170000000000000000000000000078
:101DF0000000000000000000EF0400050301A00047
:101E0000000000000000000001F9018C0200018CBC
:101E100001FD018E01E7000000000000000000004D
:101E200000000000000000040000000000000000AE
:101E300000000000000000F2FFFF0000214FE54914
:101E40005400035081D8018A1300000000040002EE
:101E50000202020000000404040400000201020067
:101E600064001700000000000000000000000000F7
:101E700000000000000000010000214FDA938149BA
:101E80005400035081D8018A1300000000040002AE
:101E90000202020000000404040400000201020027
:101EA00064001700000000000000000000000000B7
:101EB0000000000000000002010000050301B00066
:101EC0000000000000000000026C026E0000000034
:101ED0000000000000000000000000000000000002
:101EE00000000000000000040000000000000000EE
:071EF00000000000000000EB
:091EF70012010002000000404C41
:101F00000568020001010200010902290001010027
:101F100080FA0904000002030000000921110100F9
:101F200001229400070502034000010705810340D8
:101F30000001040309040A0353006F006E007900D6
:101F4000360350004C00410059005300540041003A
:101F5000540049004F004E00280052002900330071
:101F6000200043006F006E00740072006F006C0070
:101F70006C006500720005010904A101A102850140
:101F800075089501150026FF00810375019513154D
:101F90000025013500450105091901291381027544
:101FA00001950D0600FF8103150026FF00050109BC
:101FB00001A10075089504350046FF00093009317C
:101FC000093209358102C00501750895270901818B
:101FD000027508953009019102750895300901B123
:101FE00002C0A1028502750895300901B102C0A1A5
:101FF0000285EE750895300901B102C0A10285EF96
:10200000750895300901B102C0C0091F321F361F83
:02201000401F6F
:0E2012002A0EF66E080EF76E000EF86E000134
:102020000900F550EA6F0900F550EB6F03E1EA672C
:1020300001D03DD00900F550E56F0900F550E66F7D
:102040000900F550E76F09000900F550E96E090035
:10205000F550EA6E090009000900F550E86F090023
:10206000F550E96F09000900F6CFECF0F7CFEDF07D
:10207000F8CFEEF0E5C0F6FFE6C0F7FFE7C0F8FFE7
:102080000001E85302E1E95307E00900F550EE6E64
:10209000E807F8E2E907F9D7ECC0F6FFEDC0F7FF73
:1020A000EEC0F8FF0001EA07000EEB5BBFD712009D
:1020B000FE0EE3CFE9FFFF0EE3CFEAFFE9CFF3FF28
:1020C000EACFF4FFFB0EE35003E1FC0EE35009E01E
:1020D000FB0EE30602E2FC0EE306FD0EE350EE6E9D
:0420E000F1D7120022
:0C20E40013EE00F023EE00F0F86A069CFA
:1020F00009EC10F087EC10F000EC0CF0FBD71200AC
:0E21000000EE00F00F0EEE6AEA62FDD712004C
:02210E001200BD
:09211000000000000000000000C6
:020000040030CA
:0100000025DA
:010001000EF0
:010002003FBE
:010003001EDE
:010005008179
:010006008178
:010008000FE8
:01000900C036
:01000A000FE6
:01000B00E014
:01000C000FE4
:01000D0040B2
:00000001FF
